{"abi":[{"type":"function","name":"createHTLC","inputs":[{"name":"_receiver","type":"address","internalType":"address"},{"name":"_hashLock","type":"bytes32","internalType":"bytes32"},{"name":"_timeLock","type":"uint256","internalType":"uint256"}],"outputs":[{"name":"","type":"address","internalType":"address"}],"stateMutability":"payable"},{"type":"function","name":"deployedHTLCs","inputs":[{"name":"","type":"uint256","internalType":"uint256"}],"outputs":[{"name":"","type":"address","internalType":"contract HTLC"}],"stateMutability":"view"},{"type":"function","name":"getDeployedHTLCs","inputs":[],"outputs":[{"name":"","type":"address[]","internalType":"contract HTLC[]"}],"stateMutability":"view"},{"type":"event","name":"HTLCDeployed","inputs":[{"name":"htlcAddress","type":"address","indexed":false,"internalType":"address"}],"anonymous":false}],"bytecode":{"object":"0x6080604052348015600f57600080fd5b50610e6c8061001f6000396000f3fe6080604052600436106100345760003560e01c80635da5c46d14610039578063bebf796b14610064578063c558239e1461009c575b600080fd5b34801561004557600080fd5b5061004e6100af565b60405161005b9190610273565b60405180910390f35b34801561007057600080fd5b5061008461007f3660046102bf565b610111565b6040516001600160a01b03909116815260200161005b565b6100846100aa3660046102d8565b61013b565b6060600080548060200260200160405190810160405280929190818152602001828054801561010757602002820191906000526020600020905b81546001600160a01b031681526001909101906020018083116100e9575b5050505050905090565b6000818154811061012157600080fd5b6000918252602090912001546001600160a01b0316905081565b60008034116101905760405162461bcd60e51b815260206004820152601d60248201527f4d7573742073656e642045544820746f206c6f636b20696e2048544c43000000604482015260640160405180910390fd5b6000348585856040516101a290610266565b6001600160a01b039093168352602083019190915260408201526060016040518091039082f09050801580156101dc573d6000803e3d6000fd5b50600080546001810182559080527f290decd9548b62a8d60345a988386fc84ba6bc95484008f6362f93160ef3e5630180546001600160a01b0319166001600160a01b0383169081179091556040519081529091507f6fbce7054e8bb55837575bf45a55d50ad174d416ff47b495b73ff2184283d9309060200160405180910390a1949350505050565b610b1d8061031a83390190565b602080825282518282018190526000918401906040840190835b818110156102b45783516001600160a01b031683526020938401939092019160010161028d565b509095945050505050565b6000602082840312156102d157600080fd5b5035919050565b6000806000606084860312156102ed57600080fd5b83356001600160a01b038116811461030457600080fd5b9560208501359550604090940135939250505056fe610100604052604051610b1d380380610b1d8339810160408190526100239161017f565b60016000818155815460ff19169091553490036100535760405163162908e360e11b815260040160405180910390fd5b6001600160a01b03831661007a57604051631e4ec46b60e01b815260040160405180910390fd5b336001600160a01b038416036100a357604051636edaef2f60e11b815260040160405180910390fd5b610e108110156100c65760405163e77d7d5760e01b815260040160405180910390fd5b6301dfe2008111156100eb5760405163e77d7d5760e01b815260040160405180910390fd5b816101095760405163bc5ed0b360e01b815260040160405180910390fd5b336080526001600160a01b03831660a0523460025560c082905261012d81426101c2565b60e05260408051338152346020820152908101839052606081018290527f240f20813d456c0d1aa6a84704565be4c5a6d518adfc1cda174f3dc94dfa9c969060800160405180910390a15050506101e9565b60008060006060848603121561019457600080fd5b83516001600160a01b03811681146101ab57600080fd5b602085015160409095015190969495509392505050565b808201808211156101e357634e487b7160e01b600052601160045260246000fd5b92915050565b60805160a05160c05160e0516108af61026e600039600081816101c1015281816102dd01526105f101526000818160fe01526105890152600081816101fb015281816104fd0152818161064f01526106f70152600081816101570152818161023c0152818161029e0152818161039101528181610432015261049d01526108af6000f3fe608060405234801561001057600080fd5b50600436106100ea5760003560e01c806394f1825b1161008c578063ec9b5b3a11610066578063ec9b5b3a146101e3578063f7260d3e146101f6578063fa391c641461021d578063fb0c75491461022857600080fd5b806394f1825b146101a9578063aa8c217c146101b4578063d085835a146101bc57600080fd5b80635c975abb116100c85780635c975abb1461013b57806367e404ce14610152578063779cd083146101915780638456cb59146101a157600080fd5b80633f4ba83a146100ef57806351339950146100f9578063590e1ae314610133575b600080fd5b6100f7610231565b005b6101207f000000000000000000000000000000000000000000000000000000000000000081565b6040519081526020015b60405180910390f35b6100f7610283565b60015460ff165b604051901515815260200161012a565b6101797f000000000000000000000000000000000000000000000000000000000000000081565b6040516001600160a01b03909116815260200161012a565b600354610100900460ff16610142565b6100f7610492565b6101206301dfe20081565b600254610120565b6101207f000000000000000000000000000000000000000000000000000000000000000081565b6100f76101f1366004610860565b6104e2565b6101797f000000000000000000000000000000000000000000000000000000000000000081565b60035460ff16610142565b610120610e1081565b336001600160a01b037f00000000000000000000000000000000000000000000000000000000000000001614610279576040516282b42960e81b815260040160405180910390fd5b610281610762565b565b61028b6107b4565b6102936107de565b336001600160a01b037f000000000000000000000000000000000000000000000000000000000000000016146102db576040516282b42960e81b815260040160405180910390fd5b7f0000000000000000000000000000000000000000000000000000000000000000421161031b5760405163191f4d1b60e31b815260040160405180910390fd5b60035460ff161561033f5760405163195332a560e01b815260040160405180910390fd5b600354610100900460ff16156103685760405163542f378d60e11b815260040160405180910390fd5b600280546000918290556003805461ff0019166101001790556040519091906001600160a01b037f0000000000000000000000000000000000000000000000000000000000000000169083908381818185875af1925050503d80600081146103ec576040519150601f19603f3d011682016040523d82523d6000602084013e6103f1565b606091505b50509050806104245760028290556003805461ff0019169055604080516312171d8360e31b815290519081900360040190fd5b604080516001600160a01b037f0000000000000000000000000000000000000000000000000000000000000000168152602081018490527fd7dee2702d63ad89917b6a4da9981c90c4d24f8c2bdfd64c604ecae57d8d0651910160405180910390a150506102816001600055565b336001600160a01b037f000000000000000000000000000000000000000000000000000000000000000016146104da576040516282b42960e81b815260040160405180910390fd5b610281610802565b6104ea6107b4565b6104f26107de565b336001600160a01b037f0000000000000000000000000000000000000000000000000000000000000000161461053a576040516282b42960e81b815260040160405180910390fd5b60035460ff161561055e5760405163195332a560e01b815260040160405180910390fd5b600354610100900460ff16156105875760405163542f378d60e11b815260040160405180910390fd5b7f0000000000000000000000000000000000000000000000000000000000000000816040516020016105bb91815260200190565b60405160208183030381529060405280519060200120146105ef57604051630cb4548160e11b815260040160405180910390fd5b7f00000000000000000000000000000000000000000000000000000000000000004211156106305760405163179a39d160e01b815260040160405180910390fd5b600280546000918290556003805460ff191660011790556040519091907f00000000000000000000000000000000000000000000000000000000000000006001600160a01b03169083908381818185875af1925050503d80600081146106b2576040519150601f19603f3d011682016040523d82523d6000602084013e6106b7565b606091505b50509050806106e95760028290556003805460ff19169055604080516312171d8360e31b815290519081900360040190fd5b604080516001600160a01b037f0000000000000000000000000000000000000000000000000000000000000000168152602081018490529081018490527f0789f9c65a83ea68c24fd9e4ddf905e92e29f40da2c579072f6426d28e85ca139060600160405180910390a1505061075f6001600055565b50565b61076a61083d565b6001805460ff191690557f5db9ee0a495bf2e6ff9c91a7834c1ba4fdd244a5e8aa4e537bd38aeae4b073aa335b6040516001600160a01b03909116815260200160405180910390a1565b6002600054036107d757604051633ee5aeb560e01b815260040160405180910390fd5b6002600055565b60015460ff16156102815760405163d93c066560e01b815260040160405180910390fd5b61080a6107de565b6001805460ff1916811790557f62e78cea01bee320cd4e420270b5ea74000d11b0c9f74754ebdbfc544b05a25833610797565b60015460ff1661028157604051638dfc202b60e01b815260040160405180910390fd5b60006020828403121561087257600080fd5b503591905056fea2646970667358221220bba8730374b8ce19c4c35f0eb658e9afa0df912d8193e67dce04bdecfa45cda164736f6c634300081c0033a264697066735822122077010b302b777740ea4cd8f385ccb17213052ecdfa39933cf34234156ebf65a564736f6c634300081c0033","linkReferences":{}},"methodIdentifiers":{"createHTLC(address,bytes32,uint256)":"c558239e","deployedHTLCs(uint256)":"bebf796b","getDeployedHTLCs()":"5da5c46d"},"id":24}