{"abi":[{"type":"constructor","inputs":[{"name":"_receiver","type":"address","internalType":"address"},{"name":"_hashLock","type":"bytes32","internalType":"bytes32"},{"name":"_timeLock","type":"uint256","internalType":"uint256"}],"stateMutability":"payable"},{"type":"function","name":"MAX_TIMELOCK","inputs":[],"outputs":[{"name":"","type":"uint256","internalType":"uint256"}],"stateMutability":"view"},{"type":"function","name":"MIN_TIMELOCK","inputs":[],"outputs":[{"name":"","type":"uint256","internalType":"uint256"}],"stateMutability":"view"},{"type":"function","name":"amount","inputs":[],"outputs":[{"name":"","type":"uint256","internalType":"uint256"}],"stateMutability":"view"},{"type":"function","name":"hashLock","inputs":[],"outputs":[{"name":"","type":"bytes32","internalType":"bytes32"}],"stateMutability":"view"},{"type":"function","name":"isCompleted","inputs":[],"outputs":[{"name":"","type":"bool","internalType":"bool"}],"stateMutability":"view"},{"type":"function","name":"isRefunded","inputs":[],"outputs":[{"name":"","type":"bool","internalType":"bool"}],"stateMutability":"view"},{"type":"function","name":"pause","inputs":[],"outputs":[],"stateMutability":"nonpayable"},{"type":"function","name":"paused","inputs":[],"outputs":[{"name":"","type":"bool","internalType":"bool"}],"stateMutability":"view"},{"type":"function","name":"receiver","inputs":[],"outputs":[{"name":"","type":"address","internalType":"address"}],"stateMutability":"view"},{"type":"function","name":"refund","inputs":[],"outputs":[],"stateMutability":"nonpayable"},{"type":"function","name":"sender","inputs":[],"outputs":[{"name":"","type":"address","internalType":"address"}],"stateMutability":"view"},{"type":"function","name":"timeLock","inputs":[],"outputs":[{"name":"","type":"uint256","internalType":"uint256"}],"stateMutability":"view"},{"type":"function","name":"unlock","inputs":[{"name":"preimage","type":"bytes32","internalType":"bytes32"}],"outputs":[],"stateMutability":"nonpayable"},{"type":"function","name":"unpause","inputs":[],"outputs":[],"stateMutability":"nonpayable"},{"type":"event","name":"Locked","inputs":[{"name":"sender","type":"address","indexed":false,"internalType":"address"},{"name":"amount","type":"uint256","indexed":false,"internalType":"uint256"},{"name":"hashLock","type":"bytes32","indexed":false,"internalType":"bytes32"},{"name":"timeLock","type":"uint256","indexed":false,"internalType":"uint256"}],"anonymous":false},{"type":"event","name":"Paused","inputs":[{"name":"account","type":"address","indexed":false,"internalType":"address"}],"anonymous":false},{"type":"event","name":"Refunded","inputs":[{"name":"sender","type":"address","indexed":false,"internalType":"address"},{"name":"amount","type":"uint256","indexed":false,"internalType":"uint256"}],"anonymous":false},{"type":"event","name":"Unlocked","inputs":[{"name":"receiver","type":"address","indexed":false,"internalType":"address"},{"name":"amount","type":"uint256","indexed":false,"internalType":"uint256"},{"name":"preimage","type":"bytes32","indexed":false,"internalType":"bytes32"}],"anonymous":false},{"type":"event","name":"Unpaused","inputs":[{"name":"account","type":"address","indexed":false,"internalType":"address"}],"anonymous":false},{"type":"error","name":"AlreadyCompleted","inputs":[]},{"type":"error","name":"AlreadyRefunded","inputs":[]},{"type":"error","name":"EnforcedPause","inputs":[]},{"type":"error","name":"ExpectedPause","inputs":[]},{"type":"error","name":"InvalidAmount","inputs":[]},{"type":"error","name":"InvalidHashLock","inputs":[]},{"type":"error","name":"InvalidPreimage","inputs":[]},{"type":"error","name":"InvalidReceiver","inputs":[]},{"type":"error","name":"InvalidSender","inputs":[]},{"type":"error","name":"InvalidTimeLock","inputs":[]},{"type":"error","name":"ReentrancyGuardReentrantCall","inputs":[]},{"type":"error","name":"TimeLockExpired","inputs":[]},{"type":"error","name":"TimeLockNotExpired","inputs":[]},{"type":"error","name":"TransferFailed","inputs":[]},{"type":"error","name":"Unauthorized","inputs":[]}],"bytecode":{"object":"0x610100604052604051610b1d380380610b1d8339810160408190526100239161017f565b60016000818155815460ff19169091553490036100535760405163162908e360e11b815260040160405180910390fd5b6001600160a01b03831661007a57604051631e4ec46b60e01b815260040160405180910390fd5b336001600160a01b038416036100a357604051636edaef2f60e11b815260040160405180910390fd5b610e108110156100c65760405163e77d7d5760e01b815260040160405180910390fd5b6301dfe2008111156100eb5760405163e77d7d5760e01b815260040160405180910390fd5b816101095760405163bc5ed0b360e01b815260040160405180910390fd5b336080526001600160a01b03831660a0523460025560c082905261012d81426101c2565b60e05260408051338152346020820152908101839052606081018290527f240f20813d456c0d1aa6a84704565be4c5a6d518adfc1cda174f3dc94dfa9c969060800160405180910390a15050506101e9565b60008060006060848603121561019457600080fd5b83516001600160a01b03811681146101ab57600080fd5b602085015160409095015190969495509392505050565b808201808211156101e357634e487b7160e01b600052601160045260246000fd5b92915050565b60805160a05160c05160e0516108af61026e600039600081816101c1015281816102dd01526105f101526000818160fe01526105890152600081816101fb015281816104fd0152818161064f01526106f70152600081816101570152818161023c0152818161029e0152818161039101528181610432015261049d01526108af6000f3fe608060405234801561001057600080fd5b50600436106100ea5760003560e01c806394f1825b1161008c578063ec9b5b3a11610066578063ec9b5b3a146101e3578063f7260d3e146101f6578063fa391c641461021d578063fb0c75491461022857600080fd5b806394f1825b146101a9578063aa8c217c146101b4578063d085835a146101bc57600080fd5b80635c975abb116100c85780635c975abb1461013b57806367e404ce14610152578063779cd083146101915780638456cb59146101a157600080fd5b80633f4ba83a146100ef57806351339950146100f9578063590e1ae314610133575b600080fd5b6100f7610231565b005b6101207f000000000000000000000000000000000000000000000000000000000000000081565b6040519081526020015b60405180910390f35b6100f7610283565b60015460ff165b604051901515815260200161012a565b6101797f000000000000000000000000000000000000000000000000000000000000000081565b6040516001600160a01b03909116815260200161012a565b600354610100900460ff16610142565b6100f7610492565b6101206301dfe20081565b600254610120565b6101207f000000000000000000000000000000000000000000000000000000000000000081565b6100f76101f1366004610860565b6104e2565b6101797f000000000000000000000000000000000000000000000000000000000000000081565b60035460ff16610142565b610120610e1081565b336001600160a01b037f00000000000000000000000000000000000000000000000000000000000000001614610279576040516282b42960e81b815260040160405180910390fd5b610281610762565b565b61028b6107b4565b6102936107de565b336001600160a01b037f000000000000000000000000000000000000000000000000000000000000000016146102db576040516282b42960e81b815260040160405180910390fd5b7f0000000000000000000000000000000000000000000000000000000000000000421161031b5760405163191f4d1b60e31b815260040160405180910390fd5b60035460ff161561033f5760405163195332a560e01b815260040160405180910390fd5b600354610100900460ff16156103685760405163542f378d60e11b815260040160405180910390fd5b600280546000918290556003805461ff0019166101001790556040519091906001600160a01b037f0000000000000000000000000000000000000000000000000000000000000000169083908381818185875af1925050503d80600081146103ec576040519150601f19603f3d011682016040523d82523d6000602084013e6103f1565b606091505b50509050806104245760028290556003805461ff0019169055604080516312171d8360e31b815290519081900360040190fd5b604080516001600160a01b037f0000000000000000000000000000000000000000000000000000000000000000168152602081018490527fd7dee2702d63ad89917b6a4da9981c90c4d24f8c2bdfd64c604ecae57d8d0651910160405180910390a150506102816001600055565b336001600160a01b037f000000000000000000000000000000000000000000000000000000000000000016146104da576040516282b42960e81b815260040160405180910390fd5b610281610802565b6104ea6107b4565b6104f26107de565b336001600160a01b037f0000000000000000000000000000000000000000000000000000000000000000161461053a576040516282b42960e81b815260040160405180910390fd5b60035460ff161561055e5760405163195332a560e01b815260040160405180910390fd5b600354610100900460ff16156105875760405163542f378d60e11b815260040160405180910390fd5b7f0000000000000000000000000000000000000000000000000000000000000000816040516020016105bb91815260200190565b60405160208183030381529060405280519060200120146105ef57604051630cb4548160e11b815260040160405180910390fd5b7f00000000000000000000000000000000000000000000000000000000000000004211156106305760405163179a39d160e01b815260040160405180910390fd5b600280546000918290556003805460ff191660011790556040519091907f00000000000000000000000000000000000000000000000000000000000000006001600160a01b03169083908381818185875af1925050503d80600081146106b2576040519150601f19603f3d011682016040523d82523d6000602084013e6106b7565b606091505b50509050806106e95760028290556003805460ff19169055604080516312171d8360e31b815290519081900360040190fd5b604080516001600160a01b037f0000000000000000000000000000000000000000000000000000000000000000168152602081018490529081018490527f0789f9c65a83ea68c24fd9e4ddf905e92e29f40da2c579072f6426d28e85ca139060600160405180910390a1505061075f6001600055565b50565b61076a61083d565b6001805460ff191690557f5db9ee0a495bf2e6ff9c91a7834c1ba4fdd244a5e8aa4e537bd38aeae4b073aa335b6040516001600160a01b03909116815260200160405180910390a1565b6002600054036107d757604051633ee5aeb560e01b815260040160405180910390fd5b6002600055565b60015460ff16156102815760405163d93c066560e01b815260040160405180910390fd5b61080a6107de565b6001805460ff1916811790557f62e78cea01bee320cd4e420270b5ea74000d11b0c9f74754ebdbfc544b05a25833610797565b60015460ff1661028157604051638dfc202b60e01b815260040160405180910390fd5b60006020828403121561087257600080fd5b503591905056fea26469706673582212200d7c379bf740f2cd382aba9192b290b98ac06cbc50acc9c74ac07684eb17c24464736f6c63430008140033","linkReferences":{}},"methodIdentifiers":{"MAX_TIMELOCK()":"94f1825b","MIN_TIMELOCK()":"fb0c7549","amount()":"aa8c217c","hashLock()":"51339950","isCompleted()":"fa391c64","isRefunded()":"779cd083","pause()":"8456cb59","paused()":"5c975abb","receiver()":"f7260d3e","refund()":"590e1ae3","sender()":"67e404ce","timeLock()":"d085835a","unlock(bytes32)":"ec9b5b3a","unpause()":"3f4ba83a"},"id":26}